{
  "_format": "hh-sol-artifact-1",
  "contractName": "medRec",
  "sourceName": "contracts/rough_contract.sol",
  "abi": [
    {
      "inputs": [],
      "stateMutability": "nonpayable",
      "type": "constructor"
    },
    {
      "inputs": [
        {
          "internalType": "string",
          "name": "_name",
          "type": "string"
        },
        {
          "internalType": "string",
          "name": "_hname",
          "type": "string"
        },
        {
          "internalType": "string",
          "name": "_faculty",
          "type": "string"
        },
        {
          "internalType": "string",
          "name": "_contact",
          "type": "string"
        },
        {
          "internalType": "uint256",
          "name": "license",
          "type": "uint256"
        }
      ],
      "name": "addDoctor",
      "outputs": [],
      "stateMutability": "nonpayable",
      "type": "function"
    },
    {
      "inputs": [
        {
          "internalType": "string",
          "name": "_name",
          "type": "string"
        },
        {
          "internalType": "string",
          "name": "_location",
          "type": "string"
        },
        {
          "internalType": "string",
          "name": "_contact",
          "type": "string"
        },
        {
          "internalType": "uint256",
          "name": "license",
          "type": "uint256"
        }
      ],
      "name": "addInsuranceCompany",
      "outputs": [],
      "stateMutability": "nonpayable",
      "type": "function"
    },
    {
      "inputs": [
        {
          "internalType": "string",
          "name": "_name",
          "type": "string"
        },
        {
          "internalType": "string",
          "name": "_location",
          "type": "string"
        },
        {
          "internalType": "string",
          "name": "_contact",
          "type": "string"
        },
        {
          "internalType": "uint256",
          "name": "license",
          "type": "uint256"
        }
      ],
      "name": "addLaboratory",
      "outputs": [],
      "stateMutability": "nonpayable",
      "type": "function"
    },
    {
      "inputs": [
        {
          "internalType": "string",
          "name": "_name",
          "type": "string"
        },
        {
          "internalType": "string",
          "name": "_phone",
          "type": "string"
        },
        {
          "internalType": "string",
          "name": "_gender",
          "type": "string"
        },
        {
          "internalType": "string",
          "name": "_dob",
          "type": "string"
        },
        {
          "internalType": "string",
          "name": "_bloodgroup",
          "type": "string"
        }
      ],
      "name": "addPatient",
      "outputs": [],
      "stateMutability": "nonpayable",
      "type": "function"
    },
    {
      "inputs": [
        {
          "internalType": "string",
          "name": "_name",
          "type": "string"
        },
        {
          "internalType": "string",
          "name": "_location",
          "type": "string"
        },
        {
          "internalType": "string",
          "name": "_contact",
          "type": "string"
        },
        {
          "internalType": "uint256",
          "name": "license",
          "type": "uint256"
        }
      ],
      "name": "addPharmacy",
      "outputs": [],
      "stateMutability": "nonpayable",
      "type": "function"
    },
    {
      "inputs": [
        {
          "internalType": "string",
          "name": "_dname",
          "type": "string"
        },
        {
          "internalType": "string",
          "name": "_reason",
          "type": "string"
        },
        {
          "internalType": "string",
          "name": "_visitedDate",
          "type": "string"
        },
        {
          "internalType": "string",
          "name": "_ipfs",
          "type": "string"
        },
        {
          "internalType": "address",
          "name": "addr",
          "type": "address"
        }
      ],
      "name": "addRecord",
      "outputs": [],
      "stateMutability": "nonpayable",
      "type": "function"
    },
    {
      "inputs": [],
      "name": "dindex",
      "outputs": [
        {
          "internalType": "uint256",
          "name": "",
          "type": "uint256"
        }
      ],
      "stateMutability": "view",
      "type": "function"
    },
    {
      "inputs": [
        {
          "internalType": "uint256",
          "name": "",
          "type": "uint256"
        }
      ],
      "name": "doctorList",
      "outputs": [
        {
          "internalType": "address",
          "name": "",
          "type": "address"
        }
      ],
      "stateMutability": "view",
      "type": "function"
    },
    {
      "inputs": [],
      "name": "doctorLogin",
      "outputs": [],
      "stateMutability": "nonpayable",
      "type": "function"
    },
    {
      "inputs": [
        {
          "internalType": "address",
          "name": "_address",
          "type": "address"
        }
      ],
      "name": "getDoctorByAddress",
      "outputs": [
        {
          "internalType": "uint256",
          "name": "id",
          "type": "uint256"
        },
        {
          "internalType": "string",
          "name": "name",
          "type": "string"
        },
        {
          "internalType": "string",
          "name": "contact",
          "type": "string"
        },
        {
          "internalType": "string",
          "name": "hname",
          "type": "string"
        },
        {
          "internalType": "string",
          "name": "faculty",
          "type": "string"
        },
        {
          "internalType": "address",
          "name": "addr",
          "type": "address"
        },
        {
          "internalType": "bool",
          "name": "isApproved",
          "type": "bool"
        },
        {
          "internalType": "uint256",
          "name": "licenseno",
          "type": "uint256"
        }
      ],
      "stateMutability": "view",
      "type": "function"
    },
    {
      "inputs": [
        {
          "internalType": "address",
          "name": "_address",
          "type": "address"
        }
      ],
      "name": "getInsuranceCompanyByAddress",
      "outputs": [
        {
          "internalType": "uint256",
          "name": "id",
          "type": "uint256"
        },
        {
          "internalType": "string",
          "name": "name",
          "type": "string"
        },
        {
          "internalType": "string",
          "name": "contact",
          "type": "string"
        },
        {
          "internalType": "string",
          "name": "location",
          "type": "string"
        },
        {
          "internalType": "address",
          "name": "addr",
          "type": "address"
        },
        {
          "internalType": "uint256",
          "name": "licenseno",
          "type": "uint256"
        },
        {
          "internalType": "bool",
          "name": "isApproved",
          "type": "bool"
        }
      ],
      "stateMutability": "view",
      "type": "function"
    },
    {
      "inputs": [
        {
          "internalType": "address",
          "name": "_address",
          "type": "address"
        }
      ],
      "name": "getLaboratoryByAddress",
      "outputs": [
        {
          "internalType": "uint256",
          "name": "id",
          "type": "uint256"
        },
        {
          "internalType": "string",
          "name": "name",
          "type": "string"
        },
        {
          "internalType": "string",
          "name": "contact",
          "type": "string"
        },
        {
          "internalType": "string",
          "name": "location",
          "type": "string"
        },
        {
          "internalType": "address",
          "name": "addr",
          "type": "address"
        },
        {
          "internalType": "uint256",
          "name": "licenseno",
          "type": "uint256"
        },
        {
          "internalType": "bool",
          "name": "isApproved",
          "type": "bool"
        }
      ],
      "stateMutability": "view",
      "type": "function"
    },
    {
      "inputs": [
        {
          "internalType": "address",
          "name": "_addr",
          "type": "address"
        }
      ],
      "name": "getPatientDetails",
      "outputs": [
        {
          "internalType": "string",
          "name": "_name",
          "type": "string"
        },
        {
          "internalType": "string",
          "name": "_phone",
          "type": "string"
        },
        {
          "internalType": "string",
          "name": "_gender",
          "type": "string"
        },
        {
          "internalType": "string",
          "name": "_dob",
          "type": "string"
        },
        {
          "internalType": "string",
          "name": "_bloodgroup",
          "type": "string"
        }
      ],
      "stateMutability": "view",
      "type": "function"
    },
    {
      "inputs": [
        {
          "internalType": "address",
          "name": "_addr",
          "type": "address"
        },
        {
          "internalType": "uint256",
          "name": "_id",
          "type": "uint256"
        }
      ],
      "name": "getPatientRecords",
      "outputs": [
        {
          "internalType": "string",
          "name": "dname",
          "type": "string"
        },
        {
          "internalType": "string",
          "name": "reason",
          "type": "string"
        },
        {
          "internalType": "string",
          "name": "visitedDate",
          "type": "string"
        },
        {
          "internalType": "string",
          "name": "ipfs",
          "type": "string"
        }
      ],
      "stateMutability": "view",
      "type": "function"
    },
    {
      "inputs": [
        {
          "internalType": "address",
          "name": "_address",
          "type": "address"
        }
      ],
      "name": "getPharmacyByAddress",
      "outputs": [
        {
          "internalType": "uint256",
          "name": "id",
          "type": "uint256"
        },
        {
          "internalType": "string",
          "name": "name",
          "type": "string"
        },
        {
          "internalType": "string",
          "name": "contact",
          "type": "string"
        },
        {
          "internalType": "address",
          "name": "addr",
          "type": "address"
        },
        {
          "internalType": "bool",
          "name": "isApproved",
          "type": "bool"
        },
        {
          "internalType": "string",
          "name": "location",
          "type": "string"
        },
        {
          "internalType": "uint256",
          "name": "licenseno",
          "type": "uint256"
        }
      ],
      "stateMutability": "view",
      "type": "function"
    },
    {
      "inputs": [
        {
          "internalType": "uint256",
          "name": "id",
          "type": "uint256"
        }
      ],
      "name": "getRegisteredDoctorsList",
      "outputs": [
        {
          "internalType": "uint256",
          "name": "license",
          "type": "uint256"
        }
      ],
      "stateMutability": "view",
      "type": "function"
    },
    {
      "inputs": [
        {
          "internalType": "uint256",
          "name": "id",
          "type": "uint256"
        }
      ],
      "name": "getRegisteredInsuranceCompaniesList",
      "outputs": [
        {
          "internalType": "uint256",
          "name": "license",
          "type": "uint256"
        }
      ],
      "stateMutability": "view",
      "type": "function"
    },
    {
      "inputs": [
        {
          "internalType": "uint256",
          "name": "id",
          "type": "uint256"
        }
      ],
      "name": "getRegisteredLaboratoriesList",
      "outputs": [
        {
          "internalType": "uint256",
          "name": "license",
          "type": "uint256"
        }
      ],
      "stateMutability": "view",
      "type": "function"
    },
    {
      "inputs": [
        {
          "internalType": "uint256",
          "name": "id",
          "type": "uint256"
        }
      ],
      "name": "getRegisteredPharmaciesList",
      "outputs": [
        {
          "internalType": "uint256",
          "name": "license",
          "type": "uint256"
        }
      ],
      "stateMutability": "view",
      "type": "function"
    },
    {
      "inputs": [
        {
          "internalType": "address",
          "name": "_addr",
          "type": "address"
        }
      ],
      "name": "getrecordlist",
      "outputs": [
        {
          "internalType": "uint256",
          "name": "",
          "type": "uint256"
        }
      ],
      "stateMutability": "view",
      "type": "function"
    },
    {
      "inputs": [
        {
          "internalType": "address",
          "name": "_addr",
          "type": "address"
        }
      ],
      "name": "grantAccess",
      "outputs": [
        {
          "internalType": "bool",
          "name": "success",
          "type": "bool"
        }
      ],
      "stateMutability": "nonpayable",
      "type": "function"
    },
    {
      "inputs": [],
      "name": "iindex",
      "outputs": [
        {
          "internalType": "uint256",
          "name": "",
          "type": "uint256"
        }
      ],
      "stateMutability": "view",
      "type": "function"
    },
    {
      "inputs": [
        {
          "internalType": "uint256",
          "name": "",
          "type": "uint256"
        }
      ],
      "name": "insuranceCompanyList",
      "outputs": [
        {
          "internalType": "address",
          "name": "",
          "type": "address"
        }
      ],
      "stateMutability": "view",
      "type": "function"
    },
    {
      "inputs": [],
      "name": "insuranceCompanyLogin",
      "outputs": [],
      "stateMutability": "nonpayable",
      "type": "function"
    },
    {
      "inputs": [
        {
          "internalType": "address",
          "name": "pat",
          "type": "address"
        },
        {
          "internalType": "address",
          "name": "client",
          "type": "address"
        }
      ],
      "name": "isAuthorized",
      "outputs": [
        {
          "internalType": "bool",
          "name": "success",
          "type": "bool"
        }
      ],
      "stateMutability": "view",
      "type": "function"
    },
    {
      "inputs": [
        {
          "internalType": "address",
          "name": "addr",
          "type": "address"
        }
      ],
      "name": "isRegistered",
      "outputs": [
        {
          "internalType": "bool",
          "name": "success",
          "type": "bool"
        }
      ],
      "stateMutability": "view",
      "type": "function"
    },
    {
      "inputs": [
        {
          "internalType": "address",
          "name": "addr",
          "type": "address"
        }
      ],
      "name": "isRegisteredInsuranceCompany",
      "outputs": [
        {
          "internalType": "bool",
          "name": "success",
          "type": "bool"
        }
      ],
      "stateMutability": "view",
      "type": "function"
    },
    {
      "inputs": [
        {
          "internalType": "address",
          "name": "addr",
          "type": "address"
        }
      ],
      "name": "isRegisteredLaboratory",
      "outputs": [
        {
          "internalType": "bool",
          "name": "success",
          "type": "bool"
        }
      ],
      "stateMutability": "view",
      "type": "function"
    },
    {
      "inputs": [
        {
          "internalType": "address",
          "name": "addr",
          "type": "address"
        }
      ],
      "name": "isRegisteredPharmacy",
      "outputs": [
        {
          "internalType": "bool",
          "name": "success",
          "type": "bool"
        }
      ],
      "stateMutability": "view",
      "type": "function"
    },
    {
      "inputs": [
        {
          "internalType": "uint256",
          "name": "",
          "type": "uint256"
        }
      ],
      "name": "laboratoryList",
      "outputs": [
        {
          "internalType": "address",
          "name": "",
          "type": "address"
        }
      ],
      "stateMutability": "view",
      "type": "function"
    },
    {
      "inputs": [],
      "name": "laboratoryLogin",
      "outputs": [],
      "stateMutability": "nonpayable",
      "type": "function"
    },
    {
      "inputs": [],
      "name": "lindex",
      "outputs": [
        {
          "internalType": "uint256",
          "name": "",
          "type": "uint256"
        }
      ],
      "stateMutability": "view",
      "type": "function"
    },
    {
      "inputs": [],
      "name": "owner",
      "outputs": [
        {
          "internalType": "address",
          "name": "",
          "type": "address"
        }
      ],
      "stateMutability": "view",
      "type": "function"
    },
    {
      "inputs": [
        {
          "internalType": "uint256",
          "name": "",
          "type": "uint256"
        }
      ],
      "name": "pharmacyList",
      "outputs": [
        {
          "internalType": "address",
          "name": "",
          "type": "address"
        }
      ],
      "stateMutability": "view",
      "type": "function"
    },
    {
      "inputs": [],
      "name": "pharmacyLogin",
      "outputs": [],
      "stateMutability": "nonpayable",
      "type": "function"
    },
    {
      "inputs": [],
      "name": "phindex",
      "outputs": [
        {
          "internalType": "uint256",
          "name": "",
          "type": "uint256"
        }
      ],
      "stateMutability": "view",
      "type": "function"
    },
    {
      "inputs": [],
      "name": "pindex",
      "outputs": [
        {
          "internalType": "uint256",
          "name": "",
          "type": "uint256"
        }
      ],
      "stateMutability": "view",
      "type": "function"
    },
    {
      "inputs": [
        {
          "internalType": "string",
          "name": "docname",
          "type": "string"
        },
        {
          "internalType": "uint256",
          "name": "license",
          "type": "uint256"
        }
      ],
      "name": "registerDoctor",
      "outputs": [],
      "stateMutability": "nonpayable",
      "type": "function"
    },
    {
      "inputs": [
        {
          "internalType": "string",
          "name": "insname",
          "type": "string"
        },
        {
          "internalType": "uint256",
          "name": "insid",
          "type": "uint256"
        }
      ],
      "name": "registerInsuranceCompany",
      "outputs": [],
      "stateMutability": "nonpayable",
      "type": "function"
    },
    {
      "inputs": [
        {
          "internalType": "string",
          "name": "labname",
          "type": "string"
        },
        {
          "internalType": "uint256",
          "name": "labid",
          "type": "uint256"
        }
      ],
      "name": "registerLaboratory",
      "outputs": [],
      "stateMutability": "nonpayable",
      "type": "function"
    },
    {
      "inputs": [
        {
          "internalType": "string",
          "name": "pharmname",
          "type": "string"
        },
        {
          "internalType": "uint256",
          "name": "pharmid",
          "type": "uint256"
        }
      ],
      "name": "registerPharmacy",
      "outputs": [],
      "stateMutability": "nonpayable",
      "type": "function"
    },
    {
      "inputs": [
        {
          "internalType": "uint256",
          "name": "",
          "type": "uint256"
        }
      ],
      "name": "registeredDoctorList",
      "outputs": [
        {
          "internalType": "uint256",
          "name": "",
          "type": "uint256"
        }
      ],
      "stateMutability": "view",
      "type": "function"
    },
    {
      "inputs": [
        {
          "internalType": "uint256",
          "name": "",
          "type": "uint256"
        }
      ],
      "name": "registeredInsuranceCompanyList",
      "outputs": [
        {
          "internalType": "uint256",
          "name": "",
          "type": "uint256"
        }
      ],
      "stateMutability": "view",
      "type": "function"
    },
    {
      "inputs": [
        {
          "internalType": "uint256",
          "name": "",
          "type": "uint256"
        }
      ],
      "name": "registeredLaboratoryList",
      "outputs": [
        {
          "internalType": "uint256",
          "name": "",
          "type": "uint256"
        }
      ],
      "stateMutability": "view",
      "type": "function"
    },
    {
      "inputs": [
        {
          "internalType": "uint256",
          "name": "",
          "type": "uint256"
        }
      ],
      "name": "registeredPharmacyList",
      "outputs": [
        {
          "internalType": "uint256",
          "name": "",
          "type": "uint256"
        }
      ],
      "stateMutability": "view",
      "type": "function"
    },
    {
      "inputs": [
        {
          "internalType": "address",
          "name": "_addr",
          "type": "address"
        }
      ],
      "name": "revoke_access",
      "outputs": [
        {
          "internalType": "bool",
          "name": "success",
          "type": "bool"
        }
      ],
      "stateMutability": "nonpayable",
      "type": "function"
    },
    {
      "inputs": [
        {
          "internalType": "address",
          "name": "addr",
          "type": "address"
        }
      ],
      "name": "user",
      "outputs": [
        {
          "internalType": "int256",
          "name": "success",
          "type": "int256"
        }
      ],
      "stateMutability": "view",
      "type": "function"
    }
  ],
  "bytecode": "0x608060405260008055600060015560006002556000600355600060045534801561002857600080fd5b5033600e60006101000a81548173ffffffffffffffffffffffffffffffffffffffff021916908373ffffffffffffffffffffffffffffffffffffffff160217905550615f35806200007a6000396000f3fe608060405234801561001057600080fd5b50600436106102955760003560e01c806356fa8217116101675780638da5cb5b116100ce578063c3c5a54711610087578063c3c5a54714610894578063c9f2f056146108c4578063cb790e1d146108f4578063ce7a5cb614610924578063ead53ac91461095a578063efe2ccc11461098a57610295565b80638da5cb5b146107985780638e4ff6e0146107b65780638e949160146107e6578063928ed9da14610816578063abec773d14610834578063b2c370081461086457610295565b8063666561d111610120578063666561d11461068057806367da9c96146106b657806368825f12146106e657806370333b801461071c57806381e7e20e146107385780638853899c1461076857610295565b806356fa8217146105a757806358c5d4bf146105c357806359eeba60146105fa5780635bb3ea151461062a578063646018981461063457806365e4ad9e1461065057610295565b8063248c6a311161020b578063312625f8116101c4578063312625f8146104e75780633d4f21f91461050357806340dacf0b146105335780634f6b0d341461054f57806352a619341461056d5780635658e43b1461058957610295565b8063248c6a31146103fc578063265b09a51461042c57806327b1dcee1461044a5780632874a75f1461047a57806328d21b5a146104ad57806330929cce146104c957610295565b8063136bd1481161025d578063136bd1481461036457806314cd1a311461038057806317023c2c1461038a5780631b91942d146103ba578063213620e6146103c457806321a3c433146103e057610295565b806302bdd44f1461029a578063061bc159146102ca5780630ae5e739146102d4578063121b89a314610304578063127ca4b414610334575b600080fd5b6102b460048036038101906102af9190614eca565b6109be565b6040516102c19190614f38565b60405180910390f35b6102d26109fd565b005b6102ee60048036038101906102e99190614f7f565b610b26565b6040516102fb9190614fc7565b60405180910390f35b61031e60048036038101906103199190614eca565b610d8a565b60405161032b9190614ff1565b60405180910390f35b61034e60048036038101906103499190614eca565b610dae565b60405161035b9190614f38565b60405180910390f35b61037e60048036038101906103799190615152565b610ded565b005b610388610ebc565b005b6103a4600480360381019061039f9190614eca565b610fe5565b6040516103b19190614ff1565b60405180910390f35b6103c2611009565b005b6103de60048036038101906103d991906151ae565b611132565b005b6103fa60048036038101906103f591906151ae565b6115c4565b005b61041660048036038101906104119190614f7f565b611a56565b6040516104239190614ff1565b60405180910390f35b610434611aa5565b6040516104419190614ff1565b60405180910390f35b610464600480360381019061045f9190614f7f565b611aab565b6040516104719190614fc7565b60405180910390f35b610494600480360381019061048f9190615269565b611c82565b6040516104a49493929190615328565b60405180910390f35b6104c760048036038101906104c29190615152565b6121ee565b005b6104d16122bd565b6040516104de9190614ff1565b60405180910390f35b61050160048036038101906104fc9190615389565b6122c3565b005b61051d60048036038101906105189190614eca565b6127c3565b60405161052a9190614f38565b60405180910390f35b61054d60048036038101906105489190615152565b612802565b005b6105576128d1565b6040516105649190614ff1565b60405180910390f35b610587600480360381019061058291906151ae565b6128d7565b005b610591612d69565b60405161059e9190614ff1565b60405180910390f35b6105c160048036038101906105bc9190615474565b612d6f565b005b6105dd60048036038101906105d89190614f7f565b61312d565b6040516105f198979695949392919061557b565b60405180910390f35b610614600480360381019061060f9190614eca565b613499565b6040516106219190614ff1565b60405180910390f35b6106326134c1565b005b61064e60048036038101906106499190615152565b6135ea565b005b61066a60048036038101906106659190615615565b6136b9565b6040516106779190614fc7565b60405180910390f35b61069a60048036038101906106959190614f7f565b61374d565b6040516106ad9796959493929190615655565b60405180910390f35b6106d060048036038101906106cb9190614f7f565b613a1e565b6040516106dd9190614fc7565b60405180910390f35b61070060048036038101906106fb9190614f7f565b613ae7565b6040516107139796959493929190615655565b60405180910390f35b610736600480360381019061073191906156d9565b613db8565b005b610752600480360381019061074d9190614f7f565b614036565b60405161075f91906157dd565b60405180910390f35b610782600480360381019061077d9190614eca565b614285565b60405161078f9190614ff1565b60405180910390f35b6107a06142ad565b6040516107ad9190614f38565b60405180910390f35b6107d060048036038101906107cb9190614f7f565b6142d3565b6040516107dd9190614fc7565b60405180910390f35b61080060048036038101906107fb9190614eca565b61439c565b60405161080d9190614ff1565b60405180910390f35b61081e6143c4565b60405161082b9190614ff1565b60405180910390f35b61084e60048036038101906108499190614eca565b6143ca565b60405161085b9190614ff1565b60405180910390f35b61087e60048036038101906108799190614eca565b6143ee565b60405161088b9190614ff1565b60405180910390f35b6108ae60048036038101906108a99190614f7f565b614416565b6040516108bb9190614fc7565b60405180910390f35b6108de60048036038101906108d99190614eca565b6144df565b6040516108eb9190614ff1565b60405180910390f35b61090e60048036038101906109099190614eca565b614503565b60405161091b9190614f38565b60405180910390f35b61093e60048036038101906109399190614f7f565b614542565b60405161095197969594939291906157f8565b60405180910390f35b610974600480360381019061096f9190614f7f565b61490a565b6040516109819190614fc7565b60405180910390f35b6109a4600480360381019061099f9190614f7f565b6149d3565b6040516109b595949392919061587c565b60405180910390f35b600981815481106109ce57600080fd5b906000526020600020016000915054906101000a900473ffffffffffffffffffffffffffffffffffffffff1681565b60011515601a601160003373ffffffffffffffffffffffffffffffffffffffff1673ffffffffffffffffffffffffffffffffffffffff168152602001908152602001600020600101604051610a5291906159f5565b90815260200160405180910390206000601160003373ffffffffffffffffffffffffffffffffffffffff1673ffffffffffffffffffffffffffffffffffffffff16815260200190815260200160002060050154815260200190815260200160002060009054906101000a900460ff16151503610b24576001601160003373ffffffffffffffffffffffffffffffffffffffff1673ffffffffffffffffffffffffffffffffffffffff16815260200190815260200160002060060160006101000a81548160ff0219169083151502179055505b565b60008173ffffffffffffffffffffffffffffffffffffffff163373ffffffffffffffffffffffffffffffffffffffff1603610b96576040517f08c379a0000000000000000000000000000000000000000000000000000000008152600401610b8d90615a58565b60405180910390fd5b601560008373ffffffffffffffffffffffffffffffffffffffff1673ffffffffffffffffffffffffffffffffffffffff16815260200190815260200160002060009054906101000a900460ff16610c22576040517f08c379a0000000000000000000000000000000000000000000000000000000008152600401610c1990615ac4565b60405180910390fd5b601960003373ffffffffffffffffffffffffffffffffffffffff1673ffffffffffffffffffffffffffffffffffffffff16815260200190815260200160002060008373ffffffffffffffffffffffffffffffffffffffff1673ffffffffffffffffffffffffffffffffffffffff16815260200190815260200160002060009054906101000a900460ff1615610cec576040517f08c379a0000000000000000000000000000000000000000000000000000000008152600401610ce390615b30565b60405180910390fd5b6001601960003373ffffffffffffffffffffffffffffffffffffffff1673ffffffffffffffffffffffffffffffffffffffff16815260200190815260200160002060008473ffffffffffffffffffffffffffffffffffffffff1673ffffffffffffffffffffffffffffffffffffffff16815260200190815260200160002060006101000a81548160ff02191690831515021790555060019050919050565b600b8181548110610d9a57600080fd5b906000526020600020016000915090505481565b60068181548110610dbe57600080fd5b906000526020600020016000915054906101000a900473ffffffffffffffffffffffffffffffffffffffff1681565b600e60009054906101000a900473ffffffffffffffffffffffffffffffffffffffff1673ffffffffffffffffffffffffffffffffffffffff163373ffffffffffffffffffffffffffffffffffffffff1614610e4757600080fd5b6001601a83604051610e599190615b81565b9081526020016040518091039020600083815260200190815260200160002060006101000a81548160ff021916908315150217905550600a8190806001815401808255809150506001900390600052602060002001600090919091909150555050565b60011515601a601260003373ffffffffffffffffffffffffffffffffffffffff1673ffffffffffffffffffffffffffffffffffffffff168152602001908152602001600020600101604051610f1191906159f5565b90815260200160405180910390206000601260003373ffffffffffffffffffffffffffffffffffffffff1673ffffffffffffffffffffffffffffffffffffffff16815260200190815260200160002060050154815260200190815260200160002060009054906101000a900460ff16151503610fe3576001601260003373ffffffffffffffffffffffffffffffffffffffff1673ffffffffffffffffffffffffffffffffffffffff16815260200190815260200160002060060160006101000a81548160ff0219169083151502179055505b565b600c8181548110610ff557600080fd5b906000526020600020016000915090505481565b60011515601a601060003373ffffffffffffffffffffffffffffffffffffffff1673ffffffffffffffffffffffffffffffffffffffff16815260200190815260200160002060010160405161105e91906159f5565b90815260200160405180910390206000601060003373ffffffffffffffffffffffffffffffffffffffff1673ffffffffffffffffffffffffffffffffffffffff16815260200190815260200160002060060154815260200190815260200160002060009054906101000a900460ff16151503611130576001601060003373ffffffffffffffffffffffffffffffffffffffff1673ffffffffffffffffffffffffffffffffffffffff16815260200190815260200160002060070160006101000a81548160ff0219169083151502179055505b565b601860003373ffffffffffffffffffffffffffffffffffffffff1673ffffffffffffffffffffffffffffffffffffffff16815260200190815260200160002060009054906101000a900460ff16156111bf576040517f08c379a00000000000000000000000000000000000000000000000000000000081526004016111b690615be4565b60405180910390fd5b600e60009054906101000a900473ffffffffffffffffffffffffffffffffffffffff1673ffffffffffffffffffffffffffffffffffffffff163373ffffffffffffffffffffffffffffffffffffffff160361124f576040517f08c379a000000000000000000000000000000000000000000000000000000000815260040161124690615a58565b60405180910390fd5b600084511161125d57600080fd5b600082511161126b57600080fd5b6000811161127857600080fd5b60003390506007819080600181540180825580915050600190039060005260206000200160009091909190916101000a81548173ffffffffffffffffffffffffffffffffffffffff021916908373ffffffffffffffffffffffffffffffffffffffff16021790555060016004546112ef9190615c33565b6004819055506001601860008373ffffffffffffffffffffffffffffffffffffffff1673ffffffffffffffffffffffffffffffffffffffff16815260200190815260200160002060006101000a81548160ff02191690831515021790555084601360008373ffffffffffffffffffffffffffffffffffffffff1673ffffffffffffffffffffffffffffffffffffffff168152602001908152602001600020600101908161139c9190615dfe565b5082601360008373ffffffffffffffffffffffffffffffffffffffff1673ffffffffffffffffffffffffffffffffffffffff16815260200190815260200160002060020190816113ec9190615dfe565b5083601360008373ffffffffffffffffffffffffffffffffffffffff1673ffffffffffffffffffffffffffffffffffffffff168152602001908152602001600020600301908161143c9190615dfe565b5080601360008373ffffffffffffffffffffffffffffffffffffffff1673ffffffffffffffffffffffffffffffffffffffff16815260200190815260200160002060040160006101000a81548173ffffffffffffffffffffffffffffffffffffffff021916908373ffffffffffffffffffffffffffffffffffffffff1602179055506000601360008373ffffffffffffffffffffffffffffffffffffffff1673ffffffffffffffffffffffffffffffffffffffff16815260200190815260200160002060060160006101000a81548160ff02191690831515021790555060011515601a8660405161152d9190615b81565b9081526020016040518091039020600084815260200190815260200160002060009054906101000a900460ff161515036115bd576001601360008373ffffffffffffffffffffffffffffffffffffffff1673ffffffffffffffffffffffffffffffffffffffff16815260200190815260200160002060060160006101000a81548160ff0219169083151502179055505b5050505050565b601660003373ffffffffffffffffffffffffffffffffffffffff1673ffffffffffffffffffffffffffffffffffffffff16815260200190815260200160002060009054906101000a900460ff1615611651576040517f08c379a000000000000000000000000000000000000000000000000000000000815260040161164890615be4565b60405180910390fd5b600e60009054906101000a900473ffffffffffffffffffffffffffffffffffffffff1673ffffffffffffffffffffffffffffffffffffffff163373ffffffffffffffffffffffffffffffffffffffff16036116e1576040517f08c379a00000000000000000000000000000000000000000000000000000000081526004016116d890615a58565b60405180910390fd5b60008451116116ef57600080fd5b60008251116116fd57600080fd5b6000811161170a57600080fd5b60003390506007819080600181540180825580915050600190039060005260206000200160009091909190916101000a81548173ffffffffffffffffffffffffffffffffffffffff021916908373ffffffffffffffffffffffffffffffffffffffff16021790555060016000546117819190615c33565b6000819055506001601660008373ffffffffffffffffffffffffffffffffffffffff1673ffffffffffffffffffffffffffffffffffffffff16815260200190815260200160002060006101000a81548160ff02191690831515021790555084601160008373ffffffffffffffffffffffffffffffffffffffff1673ffffffffffffffffffffffffffffffffffffffff168152602001908152602001600020600101908161182e9190615dfe565b5082601160008373ffffffffffffffffffffffffffffffffffffffff1673ffffffffffffffffffffffffffffffffffffffff168152602001908152602001600020600201908161187e9190615dfe565b5083601160008373ffffffffffffffffffffffffffffffffffffffff1673ffffffffffffffffffffffffffffffffffffffff16815260200190815260200160002060030190816118ce9190615dfe565b5080601160008373ffffffffffffffffffffffffffffffffffffffff1673ffffffffffffffffffffffffffffffffffffffff16815260200190815260200160002060040160006101000a81548173ffffffffffffffffffffffffffffffffffffffff021916908373ffffffffffffffffffffffffffffffffffffffff1602179055506000601160008373ffffffffffffffffffffffffffffffffffffffff1673ffffffffffffffffffffffffffffffffffffffff16815260200190815260200160002060060160006101000a81548160ff02191690831515021790555060011515601a866040516119bf9190615b81565b9081526020016040518091039020600084815260200190815260200160002060009054906101000a900460ff16151503611a4f576001601160008373ffffffffffffffffffffffffffffffffffffffff1673ffffffffffffffffffffffffffffffffffffffff16815260200190815260200160002060060160006101000a81548160ff0219169083151502179055505b5050505050565b6000600f60008373ffffffffffffffffffffffffffffffffffffffff1673ffffffffffffffffffffffffffffffffffffffff168152602001908152602001600020600601805490509050919050565b60035481565b60008173ffffffffffffffffffffffffffffffffffffffff163373ffffffffffffffffffffffffffffffffffffffff1603611b1b576040517f08c379a0000000000000000000000000000000000000000000000000000000008152600401611b1290615a58565b60405180910390fd5b601960003373ffffffffffffffffffffffffffffffffffffffff1673ffffffffffffffffffffffffffffffffffffffff16815260200190815260200160002060008373ffffffffffffffffffffffffffffffffffffffff1673ffffffffffffffffffffffffffffffffffffffff16815260200190815260200160002060009054906101000a900460ff16611be4576040517f08c379a0000000000000000000000000000000000000000000000000000000008152600401611bdb90615a58565b60405180910390fd5b6000601960003373ffffffffffffffffffffffffffffffffffffffff1673ffffffffffffffffffffffffffffffffffffffff16815260200190815260200160002060008473ffffffffffffffffffffffffffffffffffffffff1673ffffffffffffffffffffffffffffffffffffffff16815260200190815260200160002060006101000a81548160ff02191690831515021790555060019050919050565b606080606080601460008773ffffffffffffffffffffffffffffffffffffffff1673ffffffffffffffffffffffffffffffffffffffff16815260200190815260200160002060009054906101000a900460ff16611d14576040517f08c379a0000000000000000000000000000000000000000000000000000000008152600401611d0b90615ac4565b60405180910390fd5b601960008773ffffffffffffffffffffffffffffffffffffffff1673ffffffffffffffffffffffffffffffffffffffff16815260200190815260200160002060003373ffffffffffffffffffffffffffffffffffffffff1673ffffffffffffffffffffffffffffffffffffffff16815260200190815260200160002060009054906101000a900460ff1680611dd457508573ffffffffffffffffffffffffffffffffffffffff163373ffffffffffffffffffffffffffffffffffffffff16145b156121aa57600f60008773ffffffffffffffffffffffffffffffffffffffff1673ffffffffffffffffffffffffffffffffffffffff1681526020019081526020016000206006018581548110611e2d57611e2c615ed0565b5b9060005260206000209060040201600001600f60008873ffffffffffffffffffffffffffffffffffffffff1673ffffffffffffffffffffffffffffffffffffffff1681526020019081526020016000206006018681548110611e9257611e91615ed0565b5b9060005260206000209060040201600101600f60008973ffffffffffffffffffffffffffffffffffffffff1673ffffffffffffffffffffffffffffffffffffffff1681526020019081526020016000206006018781548110611ef757611ef6615ed0565b5b9060005260206000209060040201600201600f60008a73ffffffffffffffffffffffffffffffffffffffff1673ffffffffffffffffffffffffffffffffffffffff1681526020019081526020016000206006018881548110611f5c57611f5b615ed0565b5b9060005260206000209060040201600301838054611f7990615921565b80601f0160208091040260200160405190810160405280929190818152602001828054611fa590615921565b8015611ff25780601f10611fc757610100808354040283529160200191611ff2565b820191906000526020600020905b815481529060010190602001808311611fd557829003601f168201915b5050505050935082805461200590615921565b80601f016020809104026020016040519081016040528092919081815260200182805461203190615921565b801561207e5780601f106120535761010080835404028352916020019161207e565b820191906000526020600020905b81548152906001019060200180831161206157829003601f168201915b5050505050925081805461209190615921565b80601f01602080910402602001604051908101604052809291908181526020018280546120bd90615921565b801561210a5780601f106120df5761010080835404028352916020019161210a565b820191906000526020600020905b8154815290600101906020018083116120ed57829003601f168201915b5050505050915080805461211d90615921565b80601f016020809104026020016040519081016040528092919081815260200182805461214990615921565b80156121965780601f1061216b57610100808354040283529160200191612196565b820191906000526020600020905b81548152906001019060200180831161217957829003601f168201915b5050505050905093509350935093506121e5565b6040517f08c379a00000000000000000000000000000000000000000000000000000000081526004016121dc90615ac4565b60405180910390fd5b92959194509250565b600e60009054906101000a900473ffffffffffffffffffffffffffffffffffffffff1673ffffffffffffffffffffffffffffffffffffffff163373ffffffffffffffffffffffffffffffffffffffff161461224857600080fd5b6001601a8360405161225a9190615b81565b9081526020016040518091039020600083815260200190815260200160002060006101000a81548160ff021916908315150217905550600c8190806001815401808255809150506001900390600052602060002001600090919091909150555050565b60025481565b601560003373ffffffffffffffffffffffffffffffffffffffff1673ffffffffffffffffffffffffffffffffffffffff16815260200190815260200160002060009054906101000a900460ff1615612350576040517f08c379a000000000000000000000000000000000000000000000000000000000815260040161234790615be4565b60405180910390fd5b600e60009054906101000a900473ffffffffffffffffffffffffffffffffffffffff1673ffffffffffffffffffffffffffffffffffffffff163373ffffffffffffffffffffffffffffffffffffffff16036123e0576040517f08c379a00000000000000000000000000000000000000000000000000000000081526004016123d790615a58565b60405180910390fd5b60003390506006819080600181540180825580915050600190039060005260206000200160009091909190916101000a81548173ffffffffffffffffffffffffffffffffffffffff021916908373ffffffffffffffffffffffffffffffffffffffff160217905550600180546124569190615c33565b6001819055506001601560008373ffffffffffffffffffffffffffffffffffffffff1673ffffffffffffffffffffffffffffffffffffffff16815260200190815260200160002060006101000a81548160ff02191690831515021790555085601060008373ffffffffffffffffffffffffffffffffffffffff1673ffffffffffffffffffffffffffffffffffffffff16815260200190815260200160002060010190816125039190615dfe565b5082601060008373ffffffffffffffffffffffffffffffffffffffff1673ffffffffffffffffffffffffffffffffffffffff16815260200190815260200160002060020190816125539190615dfe565b5084601060008373ffffffffffffffffffffffffffffffffffffffff1673ffffffffffffffffffffffffffffffffffffffff16815260200190815260200160002060030190816125a39190615dfe565b5083601060008373ffffffffffffffffffffffffffffffffffffffff1673ffffffffffffffffffffffffffffffffffffffff16815260200190815260200160002060040190816125f39190615dfe565b5080601060008373ffffffffffffffffffffffffffffffffffffffff1673ffffffffffffffffffffffffffffffffffffffff16815260200190815260200160002060050160006101000a81548173ffffffffffffffffffffffffffffffffffffffff021916908373ffffffffffffffffffffffffffffffffffffffff16021790555081601060008373ffffffffffffffffffffffffffffffffffffffff1673ffffffffffffffffffffffffffffffffffffffff168152602001908152602001600020600601819055506000601060008373ffffffffffffffffffffffffffffffffffffffff1673ffffffffffffffffffffffffffffffffffffffff16815260200190815260200160002060070160006101000a81548160ff02191690831515021790555060011515601a8760405161272b9190615b81565b9081526020016040518091039020600084815260200190815260200160002060009054906101000a900460ff161515036127bb576001601060008373ffffffffffffffffffffffffffffffffffffffff1673ffffffffffffffffffffffffffffffffffffffff16815260200190815260200160002060070160006101000a81548160ff0219169083151502179055505b505050505050565b600781815481106127d357600080fd5b906000526020600020016000915054906101000a900473ffffffffffffffffffffffffffffffffffffffff1681565b600e60009054906101000a900473ffffffffffffffffffffffffffffffffffffffff1673ffffffffffffffffffffffffffffffffffffffff163373ffffffffffffffffffffffffffffffffffffffff161461285c57600080fd5b6001601a8360405161286e9190615b81565b9081526020016040518091039020600083815260200190815260200160002060006101000a81548160ff021916908315150217905550600b8190806001815401808255809150506001900390600052602060002001600090919091909150555050565b60045481565b601760003373ffffffffffffffffffffffffffffffffffffffff1673ffffffffffffffffffffffffffffffffffffffff16815260200190815260200160002060009054906101000a900460ff1615612964576040517f08c379a000000000000000000000000000000000000000000000000000000000815260040161295b90615be4565b60405180910390fd5b600e60009054906101000a900473ffffffffffffffffffffffffffffffffffffffff1673ffffffffffffffffffffffffffffffffffffffff163373ffffffffffffffffffffffffffffffffffffffff16036129f4576040517f08c379a00000000000000000000000000000000000000000000000000000000081526004016129eb90615a58565b60405180910390fd5b6000845111612a0257600080fd5b6000825111612a1057600080fd5b60008111612a1d57600080fd5b60003390506008819080600181540180825580915050600190039060005260206000200160009091909190916101000a81548173ffffffffffffffffffffffffffffffffffffffff021916908373ffffffffffffffffffffffffffffffffffffffff1602179055506001600354612a949190615c33565b6003819055506001601760008373ffffffffffffffffffffffffffffffffffffffff1673ffffffffffffffffffffffffffffffffffffffff16815260200190815260200160002060006101000a81548160ff02191690831515021790555084601260008373ffffffffffffffffffffffffffffffffffffffff1673ffffffffffffffffffffffffffffffffffffffff1681526020019081526020016000206001019081612b419190615dfe565b5082601260008373ffffffffffffffffffffffffffffffffffffffff1673ffffffffffffffffffffffffffffffffffffffff1681526020019081526020016000206002019081612b919190615dfe565b5083601260008373ffffffffffffffffffffffffffffffffffffffff1673ffffffffffffffffffffffffffffffffffffffff1681526020019081526020016000206003019081612be19190615dfe565b5080601260008373ffffffffffffffffffffffffffffffffffffffff1673ffffffffffffffffffffffffffffffffffffffff16815260200190815260200160002060040160006101000a81548173ffffffffffffffffffffffffffffffffffffffff021916908373ffffffffffffffffffffffffffffffffffffffff1602179055506000601260008373ffffffffffffffffffffffffffffffffffffffff1673ffffffffffffffffffffffffffffffffffffffff16815260200190815260200160002060060160006101000a81548160ff02191690831515021790555060011515601a86604051612cd29190615b81565b9081526020016040518091039020600084815260200190815260200160002060009054906101000a900460ff16151503612d62576001601260008373ffffffffffffffffffffffffffffffffffffffff1673ffffffffffffffffffffffffffffffffffffffff16815260200190815260200160002060060160006101000a81548160ff0219169083151502179055505b5050505050565b60005481565b601460003373ffffffffffffffffffffffffffffffffffffffff1673ffffffffffffffffffffffffffffffffffffffff16815260200190815260200160002060009054906101000a900460ff1615612dfc576040517f08c379a0000000000000000000000000000000000000000000000000000000008152600401612df390615ac4565b60405180910390fd5b6005339080600181540180825580915050600190039060005260206000200160009091909190916101000a81548173ffffffffffffffffffffffffffffffffffffffff021916908373ffffffffffffffffffffffffffffffffffffffff1602179055506001600054612e6e9190615c33565b6000819055506001601460003373ffffffffffffffffffffffffffffffffffffffff1673ffffffffffffffffffffffffffffffffffffffff16815260200190815260200160002060006101000a81548160ff021916908315150217905550600054600f60003373ffffffffffffffffffffffffffffffffffffffff1673ffffffffffffffffffffffffffffffffffffffff1681526020019081526020016000206000018190555084600f60003373ffffffffffffffffffffffffffffffffffffffff1673ffffffffffffffffffffffffffffffffffffffff1681526020019081526020016000206001019081612f649190615dfe565b5083600f60003373ffffffffffffffffffffffffffffffffffffffff1673ffffffffffffffffffffffffffffffffffffffff1681526020019081526020016000206002019081612fb49190615dfe565b5082600f60003373ffffffffffffffffffffffffffffffffffffffff1673ffffffffffffffffffffffffffffffffffffffff16815260200190815260200160002060030190816130049190615dfe565b5081600f60003373ffffffffffffffffffffffffffffffffffffffff1673ffffffffffffffffffffffffffffffffffffffff16815260200190815260200160002060040190816130549190615dfe565b5080600f60003373ffffffffffffffffffffffffffffffffffffffff1673ffffffffffffffffffffffffffffffffffffffff16815260200190815260200160002060050190816130a49190615dfe565b5033600f60003373ffffffffffffffffffffffffffffffffffffffff1673ffffffffffffffffffffffffffffffffffffffff16815260200190815260200160002060070160006101000a81548173ffffffffffffffffffffffffffffffffffffffff021916908373ffffffffffffffffffffffffffffffffffffffff1602179055505050505050565b6000606080606080600080600080601060008b73ffffffffffffffffffffffffffffffffffffffff1673ffffffffffffffffffffffffffffffffffffffff16815260200190815260200160002060405180610100016040529081600082015481526020016001820180546131a090615921565b80601f01602080910402602001604051908101604052809291908181526020018280546131cc90615921565b80156132195780601f106131ee57610100808354040283529160200191613219565b820191906000526020600020905b8154815290600101906020018083116131fc57829003601f168201915b5050505050815260200160028201805461323290615921565b80601f016020809104026020016040519081016040528092919081815260200182805461325e90615921565b80156132ab5780601f10613280576101008083540402835291602001916132ab565b820191906000526020600020905b81548152906001019060200180831161328e57829003601f168201915b505050505081526020016003820180546132c490615921565b80601f01602080910402602001604051908101604052809291908181526020018280546132f090615921565b801561333d5780601f106133125761010080835404028352916020019161333d565b820191906000526020600020905b81548152906001019060200180831161332057829003601f168201915b5050505050815260200160048201805461335690615921565b80601f016020809104026020016040519081016040528092919081815260200182805461338290615921565b80156133cf5780601f106133a4576101008083540402835291602001916133cf565b820191906000526020600020905b8154815290600101906020018083116133b257829003601f168201915b505050505081526020016005820160009054906101000a900473ffffffffffffffffffffffffffffffffffffffff1673ffffffffffffffffffffffffffffffffffffffff1673ffffffffffffffffffffffffffffffffffffffff168152602001600682015481526020016007820160009054906101000a900460ff1615151515815250509050806000015181602001518260400151836060015184608001518560a001518660e001518760c001519850985098509850985098509850985050919395975091939597565b6000600b82815481106134af576134ae615ed0565b5b90600052602060002001549050919050565b60011515601a601360003373ffffffffffffffffffffffffffffffffffffffff1673ffffffffffffffffffffffffffffffffffffffff16815260200190815260200160002060010160405161351691906159f5565b90815260200160405180910390206000601360003373ffffffffffffffffffffffffffffffffffffffff1673ffffffffffffffffffffffffffffffffffffffff16815260200190815260200160002060050154815260200190815260200160002060009054906101000a900460ff161515036135e8576001601360003373ffffffffffffffffffffffffffffffffffffffff1673ffffffffffffffffffffffffffffffffffffffff16815260200190815260200160002060060160006101000a81548160ff0219169083151502179055505b565b600e60009054906101000a900473ffffffffffffffffffffffffffffffffffffffff1673ffffffffffffffffffffffffffffffffffffffff163373ffffffffffffffffffffffffffffffffffffffff161461364457600080fd5b6001601a836040516136569190615b81565b9081526020016040518091039020600083815260200190815260200160002060006101000a81548160ff021916908315150217905550600d8190806001815401808255809150506001900390600052602060002001600090919091909150555050565b6000601960008473ffffffffffffffffffffffffffffffffffffffff1673ffffffffffffffffffffffffffffffffffffffff16815260200190815260200160002060008373ffffffffffffffffffffffffffffffffffffffff1673ffffffffffffffffffffffffffffffffffffffff16815260200190815260200160002060009054906101000a900460ff16905092915050565b60006060806060600080600080601360008a73ffffffffffffffffffffffffffffffffffffffff1673ffffffffffffffffffffffffffffffffffffffff1681526020019081526020016000206040518060e0016040529081600082015481526020016001820180546137be90615921565b80601f01602080910402602001604051908101604052809291908181526020018280546137ea90615921565b80156138375780601f1061380c57610100808354040283529160200191613837565b820191906000526020600020905b81548152906001019060200180831161381a57829003601f168201915b5050505050815260200160028201805461385090615921565b80601f016020809104026020016040519081016040528092919081815260200182805461387c90615921565b80156138c95780601f1061389e576101008083540402835291602001916138c9565b820191906000526020600020905b8154815290600101906020018083116138ac57829003601f168201915b505050505081526020016003820180546138e290615921565b80601f016020809104026020016040519081016040528092919081815260200182805461390e90615921565b801561395b5780601f106139305761010080835404028352916020019161395b565b820191906000526020600020905b81548152906001019060200180831161393e57829003601f168201915b505050505081526020016004820160009054906101000a900473ffffffffffffffffffffffffffffffffffffffff1673ffffffffffffffffffffffffffffffffffffffff1673ffffffffffffffffffffffffffffffffffffffff168152602001600582015481526020016006820160009054906101000a900460ff1615151515815250509050806000015181602001518260400151836060015184608001518560a001518660c00151975097509750975097509750975050919395979092949650565b6000601a601260008473ffffffffffffffffffffffffffffffffffffffff1673ffffffffffffffffffffffffffffffffffffffff168152602001908152602001600020600101604051613a7191906159f5565b90815260200160405180910390206000601260008573ffffffffffffffffffffffffffffffffffffffff1673ffffffffffffffffffffffffffffffffffffffff16815260200190815260200160002060000154815260200190815260200160002060009054906101000a900460ff169050919050565b60006060806060600080600080601260008a73ffffffffffffffffffffffffffffffffffffffff1673ffffffffffffffffffffffffffffffffffffffff1681526020019081526020016000206040518060e001604052908160008201548152602001600182018054613b5890615921565b80601f0160208091040260200160405190810160405280929190818152602001828054613b8490615921565b8015613bd15780601f10613ba657610100808354040283529160200191613bd1565b820191906000526020600020905b815481529060010190602001808311613bb457829003601f168201915b50505050508152602001600282018054613bea90615921565b80601f0160208091040260200160405190810160405280929190818152602001828054613c1690615921565b8015613c635780601f10613c3857610100808354040283529160200191613c63565b820191906000526020600020905b815481529060010190602001808311613c4657829003601f168201915b50505050508152602001600382018054613c7c90615921565b80601f0160208091040260200160405190810160405280929190818152602001828054613ca890615921565b8015613cf55780601f10613cca57610100808354040283529160200191613cf5565b820191906000526020600020905b815481529060010190602001808311613cd857829003601f168201915b505050505081526020016004820160009054906101000a900473ffffffffffffffffffffffffffffffffffffffff1673ffffffffffffffffffffffffffffffffffffffff1673ffffffffffffffffffffffffffffffffffffffff168152602001600582015481526020016006820160009054906101000a900460ff1615151515815250509050806000015181602001518260400151836060015184608001518560a001518660c00151975097509750975097509750975050919395979092949650565b601460008273ffffffffffffffffffffffffffffffffffffffff1673ffffffffffffffffffffffffffffffffffffffff16815260200190815260200160002060009054906101000a900460ff16613e44576040517f08c379a0000000000000000000000000000000000000000000000000000000008152600401613e3b90615ac4565b60405180910390fd5b601960008273ffffffffffffffffffffffffffffffffffffffff1673ffffffffffffffffffffffffffffffffffffffff16815260200190815260200160002060003373ffffffffffffffffffffffffffffffffffffffff1673ffffffffffffffffffffffffffffffffffffffff16815260200190815260200160002060009054906101000a900460ff1680613f0457508073ffffffffffffffffffffffffffffffffffffffff163373ffffffffffffffffffffffffffffffffffffffff16145b15613ff457600f60008273ffffffffffffffffffffffffffffffffffffffff1673ffffffffffffffffffffffffffffffffffffffff16815260200190815260200160002060060160405180608001604052808781526020018681526020018581526020018481525090806001815401808255809150506001900390600052602060002090600402016000909190919091506000820151816000019081613faa9190615dfe565b506020820151816001019081613fc09190615dfe565b506040820151816002019081613fd69190615dfe565b506060820151816003019081613fec9190615dfe565b50505061402f565b6040517f08c379a000000000000000000000000000000000000000000000000000000000815260040161402690615ac4565b60405180910390fd5b5050505050565b600060011515601560008473ffffffffffffffffffffffffffffffffffffffff1673ffffffffffffffffffffffffffffffffffffffff16815260200190815260200160002060009054906101000a900460ff161515036140995760009050614280565b60011515601460008473ffffffffffffffffffffffffffffffffffffffff1673ffffffffffffffffffffffffffffffffffffffff16815260200190815260200160002060009054906101000a900460ff161515036140fa5760019050614280565b60011515601760008473ffffffffffffffffffffffffffffffffffffffff1673ffffffffffffffffffffffffffffffffffffffff16815260200190815260200160002060009054906101000a900460ff1615150361415b5760029050614280565b60011515601660008473ffffffffffffffffffffffffffffffffffffffff1673ffffffffffffffffffffffffffffffffffffffff16815260200190815260200160002060009054906101000a900460ff161515036141bc5760039050614280565b60011515601860008473ffffffffffffffffffffffffffffffffffffffff1673ffffffffffffffffffffffffffffffffffffffff16815260200190815260200160002060009054906101000a900460ff1615150361421d5760049050614280565b600e60009054906101000a900473ffffffffffffffffffffffffffffffffffffffff1673ffffffffffffffffffffffffffffffffffffffff168273ffffffffffffffffffffffffffffffffffffffff160361427b5760059050614280565b600690505b919050565b6000600d828154811061429b5761429a615ed0565b5b90600052602060002001549050919050565b600e60009054906101000a900473ffffffffffffffffffffffffffffffffffffffff1681565b6000601a601160008473ffffffffffffffffffffffffffffffffffffffff1673ffffffffffffffffffffffffffffffffffffffff16815260200190815260200160002060010160405161432691906159f5565b90815260200160405180910390206000601160008573ffffffffffffffffffffffffffffffffffffffff1673ffffffffffffffffffffffffffffffffffffffff16815260200190815260200160002060000154815260200190815260200160002060009054906101000a900460ff169050919050565b6000600c82815481106143b2576143b1615ed0565b5b90600052602060002001549050919050565b60015481565b600a81815481106143da57600080fd5b906000526020600020016000915090505481565b6000600a828154811061440457614403615ed0565b5b90600052602060002001549050919050565b6000601a601060008473ffffffffffffffffffffffffffffffffffffffff1673ffffffffffffffffffffffffffffffffffffffff16815260200190815260200160002060010160405161446991906159f5565b90815260200160405180910390206000601060008573ffffffffffffffffffffffffffffffffffffffff1673ffffffffffffffffffffffffffffffffffffffff16815260200190815260200160002060060154815260200190815260200160002060009054906101000a900460ff169050919050565b600d81815481106144ef57600080fd5b906000526020600020016000915090505481565b6008818154811061451357600080fd5b906000526020600020016000915054906101000a900473ffffffffffffffffffffffffffffffffffffffff1681565b600060608060008060606000601160008973ffffffffffffffffffffffffffffffffffffffff1673ffffffffffffffffffffffffffffffffffffffff16815260200190815260200160002060000154601160008a73ffffffffffffffffffffffffffffffffffffffff1673ffffffffffffffffffffffffffffffffffffffff168152602001908152602001600020600101601160008b73ffffffffffffffffffffffffffffffffffffffff1673ffffffffffffffffffffffffffffffffffffffff168152602001908152602001600020600201601160008c73ffffffffffffffffffffffffffffffffffffffff1673ffffffffffffffffffffffffffffffffffffffff16815260200190815260200160002060040160009054906101000a900473ffffffffffffffffffffffffffffffffffffffff16601160008d73ffffffffffffffffffffffffffffffffffffffff1673ffffffffffffffffffffffffffffffffffffffff16815260200190815260200160002060060160009054906101000a900460ff16601160008e73ffffffffffffffffffffffffffffffffffffffff1673ffffffffffffffffffffffffffffffffffffffff168152602001908152602001600020600301601160008f73ffffffffffffffffffffffffffffffffffffffff1673ffffffffffffffffffffffffffffffffffffffff1681526020019081526020016000206005015485805461475990615921565b80601f016020809104026020016040519081016040528092919081815260200182805461478590615921565b80156147d25780601f106147a7576101008083540402835291602001916147d2565b820191906000526020600020905b8154815290600101906020018083116147b557829003601f168201915b505050505095508480546147e590615921565b80601f016020809104026020016040519081016040528092919081815260200182805461481190615921565b801561485e5780601f106148335761010080835404028352916020019161485e565b820191906000526020600020905b81548152906001019060200180831161484157829003601f168201915b5050505050945081805461487190615921565b80601f016020809104026020016040519081016040528092919081815260200182805461489d90615921565b80156148ea5780601f106148bf576101008083540402835291602001916148ea565b820191906000526020600020905b8154815290600101906020018083116148cd57829003601f168201915b505050505091509650965096509650965096509650919395979092949650565b6000601a601360008473ffffffffffffffffffffffffffffffffffffffff1673ffffffffffffffffffffffffffffffffffffffff16815260200190815260200160002060010160405161495d91906159f5565b90815260200160405180910390206000601360008573ffffffffffffffffffffffffffffffffffffffff1673ffffffffffffffffffffffffffffffffffffffff16815260200190815260200160002060000154815260200190815260200160002060009054906101000a900460ff169050919050565b6060806060806060601460008773ffffffffffffffffffffffffffffffffffffffff1673ffffffffffffffffffffffffffffffffffffffff16815260200190815260200160002060009054906101000a900460ff16614a67576040517f08c379a0000000000000000000000000000000000000000000000000000000008152600401614a5e90615ac4565b60405180910390fd5b600f60008773ffffffffffffffffffffffffffffffffffffffff1673ffffffffffffffffffffffffffffffffffffffff168152602001908152602001600020600101600f60008873ffffffffffffffffffffffffffffffffffffffff1673ffffffffffffffffffffffffffffffffffffffff168152602001908152602001600020600201600f60008973ffffffffffffffffffffffffffffffffffffffff1673ffffffffffffffffffffffffffffffffffffffff168152602001908152602001600020600301600f60008a73ffffffffffffffffffffffffffffffffffffffff1673ffffffffffffffffffffffffffffffffffffffff168152602001908152602001600020600401600f60008b73ffffffffffffffffffffffffffffffffffffffff1673ffffffffffffffffffffffffffffffffffffffff168152602001908152602001600020600501848054614bbd90615921565b80601f0160208091040260200160405190810160405280929190818152602001828054614be990615921565b8015614c365780601f10614c0b57610100808354040283529160200191614c36565b820191906000526020600020905b815481529060010190602001808311614c1957829003601f168201915b50505050509450838054614c4990615921565b80601f0160208091040260200160405190810160405280929190818152602001828054614c7590615921565b8015614cc25780601f10614c9757610100808354040283529160200191614cc2565b820191906000526020600020905b815481529060010190602001808311614ca557829003601f168201915b50505050509350828054614cd590615921565b80601f0160208091040260200160405190810160405280929190818152602001828054614d0190615921565b8015614d4e5780601f10614d2357610100808354040283529160200191614d4e565b820191906000526020600020905b815481529060010190602001808311614d3157829003601f168201915b50505050509250818054614d6190615921565b80601f0160208091040260200160405190810160405280929190818152602001828054614d8d90615921565b8015614dda5780601f10614daf57610100808354040283529160200191614dda565b820191906000526020600020905b815481529060010190602001808311614dbd57829003601f168201915b50505050509150808054614ded90615921565b80601f0160208091040260200160405190810160405280929190818152602001828054614e1990615921565b8015614e665780601f10614e3b57610100808354040283529160200191614e66565b820191906000526020600020905b815481529060010190602001808311614e4957829003601f168201915b505050505090509450945094509450945091939590929450565b6000604051905090565b600080fd5b600080fd5b6000819050919050565b614ea781614e94565b8114614eb257600080fd5b50565b600081359050614ec481614e9e565b92915050565b600060208284031215614ee057614edf614e8a565b5b6000614eee84828501614eb5565b91505092915050565b600073ffffffffffffffffffffffffffffffffffffffff82169050919050565b6000614f2282614ef7565b9050919050565b614f3281614f17565b82525050565b6000602082019050614f4d6000830184614f29565b92915050565b614f5c81614f17565b8114614f6757600080fd5b50565b600081359050614f7981614f53565b92915050565b600060208284031215614f9557614f94614e8a565b5b6000614fa384828501614f6a565b91505092915050565b60008115159050919050565b614fc181614fac565b82525050565b6000602082019050614fdc6000830184614fb8565b92915050565b614feb81614e94565b82525050565b60006020820190506150066000830184614fe2565b92915050565b600080fd5b600080fd5b6000601f19601f8301169050919050565b7f4e487b7100000000000000000000000000000000000000000000000000000000600052604160045260246000fd5b61505f82615016565b810181811067ffffffffffffffff8211171561507e5761507d615027565b5b80604052505050565b6000615091614e80565b905061509d8282615056565b919050565b600067ffffffffffffffff8211156150bd576150bc615027565b5b6150c682615016565b9050602081019050919050565b82818337600083830152505050565b60006150f56150f0846150a2565b615087565b90508281526020810184848401111561511157615110615011565b5b61511c8482856150d3565b509392505050565b600082601f8301126151395761513861500c565b5b81356151498482602086016150e2565b91505092915050565b6000806040838503121561516957615168614e8a565b5b600083013567ffffffffffffffff81111561518757615186614e8f565b5b61519385828601615124565b92505060206151a485828601614eb5565b9150509250929050565b600080600080608085870312156151c8576151c7614e8a565b5b600085013567ffffffffffffffff8111156151e6576151e5614e8f565b5b6151f287828801615124565b945050602085013567ffffffffffffffff81111561521357615212614e8f565b5b61521f87828801615124565b935050604085013567ffffffffffffffff8111156152405761523f614e8f565b5b61524c87828801615124565b925050606061525d87828801614eb5565b91505092959194509250565b600080604083850312156152805761527f614e8a565b5b600061528e85828601614f6a565b925050602061529f85828601614eb5565b9150509250929050565b600081519050919050565b600082825260208201905092915050565b60005b838110156152e35780820151818401526020810190506152c8565b60008484015250505050565b60006152fa826152a9565b61530481856152b4565b93506153148185602086016152c5565b61531d81615016565b840191505092915050565b6000608082019050818103600083015261534281876152ef565b9050818103602083015261535681866152ef565b9050818103604083015261536a81856152ef565b9050818103606083015261537e81846152ef565b905095945050505050565b600080600080600060a086880312156153a5576153a4614e8a565b5b600086013567ffffffffffffffff8111156153c3576153c2614e8f565b5b6153cf88828901615124565b955050602086013567ffffffffffffffff8111156153f0576153ef614e8f565b5b6153fc88828901615124565b945050604086013567ffffffffffffffff81111561541d5761541c614e8f565b5b61542988828901615124565b935050606086013567ffffffffffffffff81111561544a57615449614e8f565b5b61545688828901615124565b925050608061546788828901614eb5565b9150509295509295909350565b600080600080600060a086880312156154905761548f614e8a565b5b600086013567ffffffffffffffff8111156154ae576154ad614e8f565b5b6154ba88828901615124565b955050602086013567ffffffffffffffff8111156154db576154da614e8f565b5b6154e788828901615124565b945050604086013567ffffffffffffffff81111561550857615507614e8f565b5b61551488828901615124565b935050606086013567ffffffffffffffff81111561553557615534614e8f565b5b61554188828901615124565b925050608086013567ffffffffffffffff81111561556257615561614e8f565b5b61556e88828901615124565b9150509295509295909350565b600061010082019050615591600083018b614fe2565b81810360208301526155a3818a6152ef565b905081810360408301526155b781896152ef565b905081810360608301526155cb81886152ef565b905081810360808301526155df81876152ef565b90506155ee60a0830186614f29565b6155fb60c0830185614fb8565b61560860e0830184614fe2565b9998505050505050505050565b6000806040838503121561562c5761562b614e8a565b5b600061563a85828601614f6a565b925050602061564b85828601614f6a565b9150509250929050565b600060e08201905061566a600083018a614fe2565b818103602083015261567c81896152ef565b9050818103604083015261569081886152ef565b905081810360608301526156a481876152ef565b90506156b36080830186614f29565b6156c060a0830185614fe2565b6156cd60c0830184614fb8565b98975050505050505050565b600080600080600060a086880312156156f5576156f4614e8a565b5b600086013567ffffffffffffffff81111561571357615712614e8f565b5b61571f88828901615124565b955050602086013567ffffffffffffffff8111156157405761573f614e8f565b5b61574c88828901615124565b945050604086013567ffffffffffffffff81111561576d5761576c614e8f565b5b61577988828901615124565b935050606086013567ffffffffffffffff81111561579a57615799614e8f565b5b6157a688828901615124565b92505060806157b788828901614f6a565b9150509295509295909350565b6000819050919050565b6157d7816157c4565b82525050565b60006020820190506157f260008301846157ce565b92915050565b600060e08201905061580d600083018a614fe2565b818103602083015261581f81896152ef565b9050818103604083015261583381886152ef565b90506158426060830187614f29565b61584f6080830186614fb8565b81810360a083015261586181856152ef565b905061587060c0830184614fe2565b98975050505050505050565b600060a082019050818103600083015261589681886152ef565b905081810360208301526158aa81876152ef565b905081810360408301526158be81866152ef565b905081810360608301526158d281856152ef565b905081810360808301526158e681846152ef565b90509695505050505050565b7f4e487b7100000000000000000000000000000000000000000000000000000000600052602260045260246000fd5b6000600282049050600182168061593957607f821691505b60208210810361594c5761594b6158f2565b5b50919050565b600081905092915050565b60008190508160005260206000209050919050565b6000815461597f81615921565b6159898186615952565b945060018216600081146159a457600181146159b9576159ec565b60ff19831686528115158202860193506159ec565b6159c28561595d565b60005b838110156159e4578154818901526001820191506020810190506159c5565b838801955050505b50505092915050565b6000615a018284615972565b915081905092915050565b7f5500000000000000000000000000000000000000000000000000000000000000600082015250565b6000615a426001836152b4565b9150615a4d82615a0c565b602082019050919050565b60006020820190508181036000830152615a7181615a35565b9050919050565b7f4500000000000000000000000000000000000000000000000000000000000000600082015250565b6000615aae6001836152b4565b9150615ab982615a78565b602082019050919050565b60006020820190508181036000830152615add81615aa1565b9050919050565b7f4100000000000000000000000000000000000000000000000000000000000000600082015250565b6000615b1a6001836152b4565b9150615b2582615ae4565b602082019050919050565b60006020820190508181036000830152615b4981615b0d565b9050919050565b6000615b5b826152a9565b615b658185615952565b9350615b758185602086016152c5565b80840191505092915050565b6000615b8d8284615b50565b915081905092915050565b7f5200000000000000000000000000000000000000000000000000000000000000600082015250565b6000615bce6001836152b4565b9150615bd982615b98565b602082019050919050565b60006020820190508181036000830152615bfd81615bc1565b9050919050565b7f4e487b7100000000000000000000000000000000000000000000000000000000600052601160045260246000fd5b6000615c3e82614e94565b9150615c4983614e94565b9250828201905080821115615c6157615c60615c04565b5b92915050565b60006020601f8301049050919050565b600082821b905092915050565b600060088302615cb47fffffffffffffffffffffffffffffffffffffffffffffffffffffffffffffffff82615c77565b615cbe8683615c77565b95508019841693508086168417925050509392505050565b6000819050919050565b6000615cfb615cf6615cf184614e94565b615cd6565b614e94565b9050919050565b6000819050919050565b615d1583615ce0565b615d29615d2182615d02565b848454615c84565b825550505050565b600090565b615d3e615d31565b615d49818484615d0c565b505050565b5b81811015615d6d57615d62600082615d36565b600181019050615d4f565b5050565b601f821115615db257615d838161595d565b615d8c84615c67565b81016020851015615d9b578190505b615daf615da785615c67565b830182615d4e565b50505b505050565b600082821c905092915050565b6000615dd560001984600802615db7565b1980831691505092915050565b6000615dee8383615dc4565b9150826002028217905092915050565b615e07826152a9565b67ffffffffffffffff811115615e2057615e1f615027565b5b615e2a8254615921565b615e35828285615d71565b600060209050601f831160018114615e685760008415615e56578287015190505b615e608582615de2565b865550615ec8565b601f198416615e768661595d565b60005b82811015615e9e57848901518255600182019150602085019450602081019050615e79565b86831015615ebb5784890151615eb7601f891682615dc4565b8355505b6001600288020188555050505b505050505050565b7f4e487b7100000000000000000000000000000000000000000000000000000000600052603260045260246000fdfea264697066735822122019901abbc160723906462aaaa4d0818863cef804517ec2fa638de31db47f97ec64736f6c63430008110033",
  "linkReferences": {},
  "deployedLinkReferences": {}
}